{
  "contractName": "CosmosBridge",
  "abi": [
    {
      "anonymous": false,
      "inputs": [
        {
          "indexed": false,
          "internalType": "address",
          "name": "_bridgeBank",
          "type": "address"
        }
      ],
      "name": "LogBridgeBankSet",
      "type": "event"
    },
    {
      "anonymous": false,
      "inputs": [
        {
          "indexed": false,
          "internalType": "uint256",
          "name": "_prophecyID",
          "type": "uint256"
        },
        {
          "indexed": false,
          "internalType": "enum CosmosBridgeStorage.ClaimType",
          "name": "_claimType",
          "type": "uint8"
        },
        {
          "indexed": false,
          "internalType": "bytes",
          "name": "_cosmosSender",
          "type": "bytes"
        },
        {
          "indexed": false,
          "internalType": "address payable",
          "name": "_ethereumReceiver",
          "type": "address"
        },
        {
          "indexed": false,
          "internalType": "address",
          "name": "_validatorAddress",
          "type": "address"
        },
        {
          "indexed": false,
          "internalType": "address",
          "name": "_tokenAddress",
          "type": "address"
        },
        {
          "indexed": false,
          "internalType": "string",
          "name": "_symbol",
          "type": "string"
        },
        {
          "indexed": false,
          "internalType": "uint256",
          "name": "_amount",
          "type": "uint256"
        }
      ],
      "name": "LogNewProphecyClaim",
      "type": "event"
    },
    {
      "anonymous": false,
      "inputs": [
        {
          "indexed": false,
          "internalType": "address",
          "name": "_oracle",
          "type": "address"
        }
      ],
      "name": "LogOracleSet",
      "type": "event"
    },
    {
      "anonymous": false,
      "inputs": [
        {
          "indexed": false,
          "internalType": "uint256",
          "name": "_prophecyID",
          "type": "uint256"
        },
        {
          "indexed": false,
          "internalType": "enum CosmosBridgeStorage.ClaimType",
          "name": "_claimType",
          "type": "uint8"
        }
      ],
      "name": "LogProphecyCompleted",
      "type": "event"
    },
    {
      "constant": true,
      "inputs": [],
      "name": "bridgeBank",
      "outputs": [
        {
          "internalType": "address payable",
          "name": "",
          "type": "address"
        }
      ],
      "payable": false,
      "stateMutability": "view",
      "type": "function"
    },
    {
      "constant": true,
      "inputs": [],
      "name": "hasBridgeBank",
      "outputs": [
        {
          "internalType": "bool",
          "name": "",
          "type": "bool"
        }
      ],
      "payable": false,
      "stateMutability": "view",
      "type": "function"
    },
    {
      "constant": true,
      "inputs": [],
      "name": "hasOracle",
      "outputs": [
        {
          "internalType": "bool",
          "name": "",
          "type": "bool"
        }
      ],
      "payable": false,
      "stateMutability": "view",
      "type": "function"
    },
    {
      "constant": true,
      "inputs": [],
      "name": "operator",
      "outputs": [
        {
          "internalType": "address",
          "name": "",
          "type": "address"
        }
      ],
      "payable": false,
      "stateMutability": "view",
      "type": "function"
    },
    {
      "constant": true,
      "inputs": [],
      "name": "oracle",
      "outputs": [
        {
          "internalType": "address payable",
          "name": "",
          "type": "address"
        }
      ],
      "payable": false,
      "stateMutability": "view",
      "type": "function"
    },
    {
      "constant": true,
      "inputs": [],
      "name": "prophecyClaimCount",
      "outputs": [
        {
          "internalType": "uint256",
          "name": "",
          "type": "uint256"
        }
      ],
      "payable": false,
      "stateMutability": "view",
      "type": "function"
    },
    {
      "constant": true,
      "inputs": [
        {
          "internalType": "uint256",
          "name": "",
          "type": "uint256"
        }
      ],
      "name": "prophecyClaims",
      "outputs": [
        {
          "internalType": "enum CosmosBridgeStorage.ClaimType",
          "name": "claimType",
          "type": "uint8"
        },
        {
          "internalType": "bytes",
          "name": "cosmosSender",
          "type": "bytes"
        },
        {
          "internalType": "address payable",
          "name": "ethereumReceiver",
          "type": "address"
        },
        {
          "internalType": "address",
          "name": "originalValidator",
          "type": "address"
        },
        {
          "internalType": "address",
          "name": "tokenAddress",
          "type": "address"
        },
        {
          "internalType": "string",
          "name": "symbol",
          "type": "string"
        },
        {
          "internalType": "uint256",
          "name": "amount",
          "type": "uint256"
        },
        {
          "internalType": "enum CosmosBridgeStorage.Status",
          "name": "status",
          "type": "uint8"
        }
      ],
      "payable": false,
      "stateMutability": "view",
      "type": "function"
    },
    {
      "constant": true,
      "inputs": [
        {
          "internalType": "uint256",
          "name": "",
          "type": "uint256"
        }
      ],
      "name": "usedNonce",
      "outputs": [
        {
          "internalType": "bool",
          "name": "",
          "type": "bool"
        }
      ],
      "payable": false,
      "stateMutability": "view",
      "type": "function"
    },
    {
      "constant": true,
      "inputs": [],
      "name": "valset",
      "outputs": [
        {
          "internalType": "address payable",
          "name": "",
          "type": "address"
        }
      ],
      "payable": false,
      "stateMutability": "view",
      "type": "function"
    },
    {
      "constant": false,
      "inputs": [
        {
          "internalType": "address",
          "name": "_operator",
          "type": "address"
        },
        {
          "internalType": "address payable",
          "name": "_valset",
          "type": "address"
        }
      ],
      "name": "initialize",
      "outputs": [],
      "payable": false,
      "stateMutability": "nonpayable",
      "type": "function"
    },
    {
      "constant": false,
      "inputs": [
        {
          "internalType": "address payable",
          "name": "_oracle",
          "type": "address"
        }
      ],
      "name": "setOracle",
      "outputs": [],
      "payable": false,
      "stateMutability": "nonpayable",
      "type": "function"
    },
    {
      "constant": false,
      "inputs": [
        {
          "internalType": "address payable",
          "name": "_bridgeBank",
          "type": "address"
        }
      ],
      "name": "setBridgeBank",
      "outputs": [],
      "payable": false,
      "stateMutability": "nonpayable",
      "type": "function"
    },
    {
      "constant": false,
      "inputs": [
        {
          "internalType": "enum CosmosBridgeStorage.ClaimType",
          "name": "_claimType",
          "type": "uint8"
        },
        {
          "internalType": "bytes",
          "name": "_cosmosSender",
          "type": "bytes"
        },
        {
          "internalType": "uint256",
          "name": "_cosmosSenderSequence",
          "type": "uint256"
        },
        {
          "internalType": "address payable",
          "name": "_ethereumReceiver",
          "type": "address"
        },
        {
          "internalType": "string",
          "name": "_symbol",
          "type": "string"
        },
        {
          "internalType": "uint256",
          "name": "_amount",
          "type": "uint256"
        }
      ],
      "name": "newProphecyClaim",
      "outputs": [],
      "payable": false,
      "stateMutability": "nonpayable",
      "type": "function"
    },
    {
      "constant": true,
      "inputs": [
        {
          "internalType": "uint256",
          "name": "_prophecyID",
          "type": "uint256"
        }
      ],
      "name": "isProphecyClaimActive",
      "outputs": [
        {
          "internalType": "bool",
          "name": "",
          "type": "bool"
        }
      ],
      "payable": false,
      "stateMutability": "view",
      "type": "function"
    },
    {
      "constant": true,
      "inputs": [
        {
          "internalType": "uint256",
          "name": "_prophecyID",
          "type": "uint256"
        }
      ],
      "name": "isProphecyClaimValidatorActive",
      "outputs": [
        {
          "internalType": "bool",
          "name": "",
          "type": "bool"
        }
      ],
      "payable": false,
      "stateMutability": "view",
      "type": "function"
    }
  ],
  "bytecode": "0x608060405234801561001057600080fd5b50611fdb806100206000396000f3fe608060405234801561001057600080fd5b50600436106100f55760003560e01c80637dc0d1d0116100975780639723fb6d116100665780639723fb6d14610353578063d8da69ea14610370578063db4237af1461038d578063fb7831f2146104de576100f5565b80637dc0d1d0146103035780637f54af0c1461030b578063814c92c3146103135780638ea5352d14610339576100f5565b8063570ca735116100d3578063570ca7351461017f5780635d4c66a31461018757806369294a4e146102d55780637adbf973146102dd576100f5565b80630e41f373146100fa578063485cc9551461011e578063529f3dd21461014e575b600080fd5b6101026104e6565b604080516001600160a01b039092168252519081900360200190f35b61014c6004803603604081101561013457600080fd5b506001600160a01b03813581169160200135166104f5565b005b61016b6004803603602081101561016457600080fd5b50356105c0565b604080519115158252519081900360200190f35b61010261064f565b61014c600480360360c081101561019d57600080fd5b60ff82351691908101906040810160208201356401000000008111156101c257600080fd5b8201836020820111156101d457600080fd5b803590602001918460018302840111640100000000831117156101f657600080fd5b91908080601f01602080910402602001604051908101604052809392919081815260200183838082843760009201919091525092958435956001600160a01b036020870135169591945092506060810191506040013564010000000081111561025e57600080fd5b82018360208201111561027057600080fd5b8035906020019184600183028401116401000000008311171561029257600080fd5b91908080601f016020809104026020016040519081016040528093929190818152602001838380828437600092019190915250929550509135925061065e915050565b61016b61116c565b61014c600480360360208110156102f357600080fd5b50356001600160a01b031661117c565b610102611285565b610102611294565b61014c6004803603602081101561032957600080fd5b50356001600160a01b03166112a3565b6103416113ac565b60408051918252519081900360200190f35b61016b6004803603602081101561036957600080fd5b50356113b2565b61016b6004803603602081101561038657600080fd5b50356113c7565b6103aa600480360360208110156103a357600080fd5b50356113f1565b604051808960028111156103ba57fe5b60ff1681526001600160a01b03808916604083015287811660608301528616608082015260c08101849052602081019060a081019060e0018460038111156103fe57fe5b60ff16815260200183810383528a818151815260200191508051906020019080838360005b8381101561043b578181015183820152602001610423565b50505050905090810190601f1680156104685780820380516001836020036101000a031916815260200191505b50838103825286518152865160209182019188019080838360005b8381101561049b578181015183820152602001610483565b50505050905090810190601f1680156104c85780820380516001836020036101000a031916815260200191505b509a505050505050505050505060405180910390f35b61016b611562565b6004546001600160a01b031681565b606c5460ff161561053b576040805162461bcd60e51b815260206004820152600b60248201526a125b9a5d1a585b1a5e995960aa1b604482015290519081900360640190fd5b604080518082019091526001808252606560f81b602090920191825261056391600091611dab565b506000600555600180546001600160a01b039384166001600160a01b031991821617825560028054939094169216919091179091556003805460ff60a01b19908116909155600480549091169055606c805460ff19169091179055565b6002546000828152600760209081526040808320600301548151631015428760e21b81526001600160a01b0391821660048201529151939416926340550a1c92602480840193919291829003018186803b15801561061d57600080fd5b505afa158015610631573d6000803e3d6000fd5b505050506040513d602081101561064757600080fd5b505192915050565b6001546001600160a01b031681565b600354600160a01b900460ff161515600114801561068a5750600454600160a01b900460ff1615156001145b6106c55760405162461bcd60e51b8152600401808060200182810382526046815260200180611e8b6046913960600191505060405180910390fd5b60025460408051631015428760e21b815233600482015290516001600160a01b03909216916340550a1c91602480820192602092909190829003018186803b15801561071057600080fd5b505afa158015610724573d6000803e3d6000fd5b505050506040513d602081101561073a57600080fd5b505161078d576040805162461bcd60e51b815260206004820152601b60248201527f4d75737420626520616e206163746976652076616c696461746f720000000000604482015290519081900360640190fd5b600080878787878787604051602001808760028111156107a957fe5b60ff1660f81b815260010186805190602001908083835b602083106107df5780518252601f1990920191602091820191016107c0565b51815160209384036101000a60001901801990921691161790529201878152606087901b6bffffffffffffffffffffffff1916818401528551603490910192860191508083835b602083106108455780518252601f199092019160209182019101610826565b51815160209384036101000a6000190180199092169116179052920193845250604080518085038152938201815283519382019390932060008181526006909252929020549197505060ff16159450610924935050505057600354604080516368e9420d60e11b81526004810184905233602482015290516001600160a01b039092169163d1d2841a916044808201926020929091908290030181600087803b1580156108f157600080fd5b505af1158015610905573d6000803e3d6000fd5b505050506040513d602081101561091b57600080fd5b50519150611153565b6000606060018a600281111561093657fe5b1415610b315760048054604051635acba65560e01b8152602092810183815289516024830152895189946001600160a01b0390941693635acba655938c9392839260449092019185019080838360005b8381101561099e578181015183820152602001610986565b50505050905090810190601f1680156109cb5780820380516001836020036101000a031916815260200191505b509250505060206040518083038186803b1580156109e857600080fd5b505afa1580156109fc573d6000803e3d6000fd5b505050506040513d6020811015610a1257600080fd5b50511015610a515760405162461bcd60e51b815260040180806020018281038252603a815260200180611f6d603a913960400191505060405180910390fd5b506004805460405163050fcdb360e11b8152602092810183815288516024830152885189946001600160a01b0390941693630a1f9b6693869392839260449092019185019080838360005b83811015610ab4578181015183820152602001610a9c565b50505050905090810190601f168015610ae15780820380516001836020036101000a031916815260200191505b509250505060206040518083038186803b158015610afe57600080fd5b505afa158015610b12573d6000803e3d6000fd5b505050506040513d6020811015610b2857600080fd5b50519150610de8565b60028a6002811115610b3f57fe5b1415610db15760008054604080516020601f60026000196101006001881615020190951694909404938401819004810282018101909252828152610bdd9390929091830182828015610bd25780601f10610ba757610100808354040283529160200191610bd2565b820191906000526020600020905b815481529060010190602001808311610bb557829003601f168201915b505050505087611572565b6004805460405163ebb73ca960e01b815260209281018381528451602483015284519495506000946001600160a01b039093169363ebb73ca99387938392604490910191908501908083838b5b83811015610c42578181015183820152602001610c2a565b50505050905090810190601f168015610c6f5780820380516001836020036101000a031916815260200191505b509250505060206040518083038186803b158015610c8c57600080fd5b505afa158015610ca0573d6000803e3d6000fd5b505050506040513d6020811015610cb657600080fd5b505190506001600160a01b038116610da757600480546040516350b06e4d60e01b815260209281018381528551602483015285516001600160a01b03909316936350b06e4d93879383926044909101919085019080838360005b83811015610d28578181015183820152602001610d10565b50505050905090810190601f168015610d555780820380516001836020036101000a031916815260200191505b5092505050602060405180830381600087803b158015610d7457600080fd5b505af1158015610d88573d6000803e3d6000fd5b505050506040513d6020811015610d9e57600080fd5b50519250610dab565b8092505b50610de8565b60405162461bcd60e51b8152600401808060200182810382526035815260200180611f386035913960400191505060405180910390fd5b610df0611e29565b6040518061010001604052808c6002811115610e0857fe5b8152602081018c90526001600160a01b03808b1660408301523360608301528516608082015260a0810184905260c0810188905260e00160019052600554909150610e5a90600163ffffffff61162d16565b60055560008481526007602052604090208151815483929190829060ff19166001836002811115610e8757fe5b02179055506020828101518051610ea49260018501920190611dab565b5060408201516002820180546001600160a01b039283166001600160a01b0319918216179091556060840151600384018054918416918316919091179055608084015160048401805491909316911617905560a08201518051610f11916005840191602090910190611dab565b5060c0820151600682015560e082015160078201805460ff19166001836003811115610f3957fe5b02179055509050507f4c4b04a2b190e6bb01b6243f150fc76174861acd19cf98841801baaff5262dd8848c8c8b3388888d60405180898152602001886002811115610f8057fe5b60ff16815260200180602001876001600160a01b03166001600160a01b03168152602001866001600160a01b03166001600160a01b03168152602001856001600160a01b03166001600160a01b0316815260200180602001848152602001838103835289818151815260200191508051906020019080838360005b83811015611013578181015183820152602001610ffb565b50505050905090810190601f1680156110405780820380516001836020036101000a031916815260200191505b50838103825285518152855160209182019187019080838360005b8381101561107357818101518382015260200161105b565b50505050905090810190601f1680156110a05780820380516001836020036101000a031916815260200191505b509a505050505050505050505060405180910390a16000848152600660209081526040808320805460ff1916600117905560035481516368e9420d60e11b81526004810189905233602482015291516001600160a01b039091169363d1d2841a93604480850194919392918390030190829087803b15801561112157600080fd5b505af1158015611135573d6000803e3d6000fd5b505050506040513d602081101561114b57600080fd5b505194505050505b8115611162576111628161168e565b5050505050505050565b600454600160a01b900460ff1681565b6001546001600160a01b031633146111d3576040805162461bcd60e51b815260206004820152601560248201527426bab9ba103132903a34329037b832b930ba37b91760591b604482015290519081900360640190fd5b600354600160a01b900460ff161561121c5760405162461bcd60e51b8152600401808060200182810382526031815260200180611f076031913960400191505060405180910390fd5b60038054600160a01b60ff60a01b19909116176001600160a01b0319166001600160a01b03838116919091179182905560408051929091168252517f6efb0434342713e2e9b1501dbebf76b4ed18406ea77ab5d56535cc26dec3adc0916020908290030190a150565b6003546001600160a01b031681565b6002546001600160a01b031681565b6001546001600160a01b031633146112fa576040805162461bcd60e51b815260206004820152601560248201527426bab9ba103132903a34329037b832b930ba37b91760591b604482015290519081900360640190fd5b600454600160a01b900460ff16156113435760405162461bcd60e51b8152600401808060200182810382526036815260200180611ed16036913960400191505060405180910390fd5b60048054600160a01b60ff60a01b19909116176001600160a01b0319166001600160a01b03838116919091179182905560408051929091168252517fc8b65043fb196ac032b79a435397d1d14a96b4e9d12e366c3b1f550cb01d2dfa916020908290030190a150565b60055481565b60066020526000908152604090205460ff1681565b60008181526007602081905260408220015460019060ff1660038111156113ea57fe5b1492915050565b6007602090815260009182526040918290208054600180830180548651600261010094831615949094026000190190911692909204601f810186900486028301860190965285825260ff9092169492939092908301828280156114955780601f1061146a57610100808354040283529160200191611495565b820191906000526020600020905b81548152906001019060200180831161147857829003601f168201915b50505050600283810154600385015460048601546005870180546040805160206101006001851615026000190190931697909704601f810183900483028801830190915280875297986001600160a01b0395861698948616975094909216949290918301828280156115485780601f1061151d57610100808354040283529160200191611548565b820191906000526020600020905b81548152906001019060200180831161152b57829003601f168201915b50505050600683015460079093015491929160ff16905088565b600354600160a01b900460ff1681565b606082826040516020018083805190602001908083835b602083106115a85780518252601f199092019160209182019101611589565b51815160209384036101000a600019018019909216911617905285519190930192850191508083835b602083106115f05780518252601f1990920191602091820191016115d1565b6001836020036101000a03801982511681845116808217855250505050505090500192505050604051602081830303815290604052905092915050565b600082820183811015611687576040805162461bcd60e51b815260206004820152601b60248201527f536166654d6174683a206164646974696f6e206f766572666c6f770000000000604482015290519081900360640190fd5b9392505050565b80611698816113c7565b6116e9576040805162461bcd60e51b815260206004820152601c60248201527f50726f706865637920636c61696d206973206e6f742061637469766500000000604482015290519081900360640190fd5b6000828152600760208190526040909120908101805460ff19166002908117909155905460ff1690600190829081111561171f57fe5b14156117335761172e8361178e565b61173c565b61173c83611a58565b7f79e7c1c0bd54f11809c3bf6023c242783602d61ceff272c6bba6f8559c24ad0d83826040518083815260200182600281111561177557fe5b60ff1681526020019250505060405180910390a1505050565b611796611e29565b60008281526007602052604090819020815161010081019092528054829060ff1660028111156117c257fe5b60028111156117cd57fe5b8152602001600182018054600181600116156101000203166002900480601f01602080910402602001604051908101604052809291908181526020018280546001816001161561010002031660029004801561186a5780601f1061183f5761010080835404028352916020019161186a565b820191906000526020600020905b81548152906001019060200180831161184d57829003601f168201915b50505091835250506002828101546001600160a01b03908116602080850191909152600385015482166040808601919091526004860154909216606085015260058501805483516101006001831615026000190190911694909404601f810183900483028501830190935282845260809094019391908301828280156119315780601f1061190657610100808354040283529160200191611931565b820191906000526020600020905b81548152906001019060200180831161191457829003601f168201915b505050918352505060068201546020820152600782015460409091019060ff16600381111561195c57fe5b600381111561196757fe5b9052506004805460408084015160a085015160c08601519251633816622960e21b81526001600160a01b038381169682019687526044820185905260606024830190815283516064840152835198995095169663e05988a4969395929493929160840190602086019080838360005b838110156119ee5781810151838201526020016119d6565b50505050905090810190601f168015611a1b5780820380516001836020036101000a031916815260200191505b50945050505050600060405180830381600087803b158015611a3c57600080fd5b505af1158015611a50573d6000803e3d6000fd5b505050505050565b611a60611e29565b60008281526007602052604090819020815161010081019092528054829060ff166002811115611a8c57fe5b6002811115611a9757fe5b8152602001600182018054600181600116156101000203166002900480601f016020809104026020016040519081016040528092919081815260200182805460018160011615610100020316600290048015611b345780601f10611b0957610100808354040283529160200191611b34565b820191906000526020600020905b815481529060010190602001808311611b1757829003601f168201915b50505091835250506002828101546001600160a01b03908116602080850191909152600385015482166040808601919091526004860154909216606085015260058501805483516101006001831615026000190190911694909404601f81018390048302850183019093528284526080909401939190830182828015611bfb5780601f10611bd057610100808354040283529160200191611bfb565b820191906000526020600020905b815481529060010190602001808311611bde57829003601f168201915b505050918352505060068201546020820152600782015460409091019060ff166003811115611c2657fe5b6003811115611c3157fe5b815250509050600460009054906101000a90046001600160a01b03166001600160a01b031663cdf68c418260200151836040015184608001518560a001518660c001516040518663ffffffff1660e01b81526004018080602001866001600160a01b03166001600160a01b03168152602001856001600160a01b03166001600160a01b0316815260200180602001848152602001838103835288818151815260200191508051906020019080838360005b83811015611cfa578181015183820152602001611ce2565b50505050905090810190601f168015611d275780820380516001836020036101000a031916815260200191505b50838103825285518152855160209182019187019080838360005b83811015611d5a578181015183820152602001611d42565b50505050905090810190601f168015611d875780820380516001836020036101000a031916815260200191505b50975050505050505050600060405180830381600087803b158015611a3c57600080fd5b828054600181600116156101000203166002900490600052602060002090601f016020900481019282601f10611dec57805160ff1916838001178555611e19565b82800160010185558215611e19579182015b82811115611e19578251825591602001919060010190611dfe565b50611e25929150611e6d565b5090565b604080516101008101825260008082526060602083018190529282018190528282018190526080820181905260a082019290925260c081018290529060e082015290565b611e8791905b80821115611e255760008155600101611e73565b9056fe546865204f70657261746f72206d7573742073657420746865206f7261636c6520616e64206272696467652062616e6b20666f72206272696467652061637469766174696f6e546865204272696467652042616e6b2063616e6e6f742062652075706461746564206f6e636520697420686173206265656e20736574546865204f7261636c652063616e6e6f742062652075706461746564206f6e636520697420686173206265656e20736574496e76616c696420636c61696d20747970652c206f6e6c79206275726e20616e64206c6f636b2061726520737570706f727465642e4e6f7420656e6f756768206c6f636b65642061737365747320746f20636f6d706c657465207468652070726f706f7365642070726f7068656379a265627a7a72315820b9d36b2498cd56a092a3c3e0061c875f6fb1990121a61cdba0195e21c6b05d4964736f6c63430005100032",
  "source": "pragma solidity ^0.5.0;\n\nimport \"../node_modules/openzeppelin-solidity/contracts/math/SafeMath.sol\";\nimport \"./Valset.sol\";\nimport \"./Oracle.sol\";\nimport \"./BridgeBank/BridgeBank.sol\";\nimport \"./CosmosBridgeStorage.sol\";\n\n\ncontract CosmosBridge is CosmosBridgeStorage {\n    using SafeMath for uint256;\n    \n    bool private _initialized;\n    uint256[100] private ___gap;\n\n    /*\n     * @dev: Event declarations\n     */\n\n    event LogOracleSet(address _oracle);\n\n    event LogBridgeBankSet(address _bridgeBank);\n\n    event LogNewProphecyClaim(\n        uint256 _prophecyID,\n        ClaimType _claimType,\n        bytes _cosmosSender,\n        address payable _ethereumReceiver,\n        address _validatorAddress,\n        address _tokenAddress,\n        string _symbol,\n        uint256 _amount\n    );\n\n    event LogProphecyCompleted(uint256 _prophecyID, ClaimType _claimType);\n\n    /*\n     * @dev: Modifier which only allows access to currently pending prophecies\n     */\n    modifier isPending(uint256 _prophecyID) {\n        require(\n            isProphecyClaimActive(_prophecyID),\n            \"Prophecy claim is not active\"\n        );\n        _;\n    }\n\n    /*\n     * @dev: Modifier to restrict access to the operator.\n     */\n    modifier onlyOperator() {\n        require(msg.sender == operator, \"Must be the operator.\");\n        _;\n    }\n\n    /*\n     * @dev: The bridge is not active until oracle and bridge bank are set\n     */\n    modifier isActive() {\n        require(\n            hasOracle == true && hasBridgeBank == true,\n            \"The Operator must set the oracle and bridge bank for bridge activation\"\n        );\n        _;\n    }\n\n    /*\n     * @dev: Modifier to restrict access to current ValSet validators\n     */\n    modifier onlyValidator() {\n        require(\n            Valset(valset).isActiveValidator(msg.sender),\n            \"Must be an active validator\"\n        );\n        _;\n    }\n\n    /*\n     * @dev: Constructor\n     */\n    function initialize(address _operator, address payable _valset) public {\n        require(!_initialized, \"Initialized\");\n\n        COSMOS_NATIVE_ASSET_PREFIX = \"e\";\n        prophecyClaimCount = 0;\n        operator = _operator;\n        valset = _valset;\n        hasOracle = false;\n        hasBridgeBank = false;\n        _initialized = true;\n    }\n\n    /*\n     * @dev: setOracle\n     */\n    function setOracle(address payable _oracle) public onlyOperator {\n        require(\n            !hasOracle,\n            \"The Oracle cannot be updated once it has been set\"\n        );\n\n        hasOracle = true;\n        oracle = _oracle;\n\n        emit LogOracleSet(oracle);\n    }\n\n    /*\n     * @dev: setBridgeBank\n     */\n    function setBridgeBank(address payable _bridgeBank) public onlyOperator {\n        require(\n            !hasBridgeBank,\n            \"The Bridge Bank cannot be updated once it has been set\"\n        );\n\n        hasBridgeBank = true;\n        bridgeBank = _bridgeBank;\n\n        emit LogBridgeBankSet(bridgeBank);\n    }\n\n    /*\n     * @dev: newProphecyClaim\n     *       Creates a new burn or lock prophecy claim, adding it to the prophecyClaims mapping.\n     *       Burn claims require that there are enough locked Ethereum assets to complete the prophecy.\n     *       Lock claims have a new token contract deployed or use an existing contract based on symbol.\n     */\n    function newProphecyClaim(\n        ClaimType _claimType,\n        bytes memory _cosmosSender,\n        uint256 _cosmosSenderSequence,\n        address payable _ethereumReceiver,\n        string memory _symbol,\n        uint256 _amount\n    ) public isActive onlyValidator {\n        bool claimComplete;\n        uint256 _prophecyID = uint256(keccak256(abi.encodePacked(_claimType, _cosmosSender, _cosmosSenderSequence, _ethereumReceiver, _symbol, _amount)));\n        if (usedNonce[_prophecyID]) {\n            claimComplete = Oracle(oracle).newOracleClaim(_prophecyID, msg.sender);\n        } else {\n            address tokenAddress;\n            string memory symbol;\n            if (_claimType == ClaimType.Burn) {\n                require(\n                    BridgeBank(bridgeBank).getLockedFunds(_symbol) >= _amount,\n                    \"Not enough locked assets to complete the proposed prophecy\"\n                );\n                symbol = _symbol;\n                tokenAddress = BridgeBank(bridgeBank).getLockedTokenAddress(_symbol);\n            } else if (_claimType == ClaimType.Lock) {\n                symbol = concat(COSMOS_NATIVE_ASSET_PREFIX, _symbol); // Add 'e' symbol prefix\n                address bridgeTokenAddress = BridgeBank(bridgeBank).getBridgeToken(symbol);\n                if (bridgeTokenAddress == address(0)) {\n                    // First lock of this asset, deploy new contract and get new symbol/token address\n                    tokenAddress = BridgeBank(bridgeBank).createNewBridgeToken(symbol);\n                } else {\n                    // Not the first lock of this asset, get existing symbol/token address\n                    tokenAddress = bridgeTokenAddress;\n                }\n            } else {\n                revert(\"Invalid claim type, only burn and lock are supported.\");\n            }\n\n            // Create the new ProphecyClaim\n            ProphecyClaim memory prophecyClaim = ProphecyClaim(\n                _claimType,\n                _cosmosSender,\n                _ethereumReceiver,\n                msg.sender,\n                tokenAddress,\n                symbol,\n                _amount,\n                Status.Pending\n            );\n\n            // Increment count and add the new ProphecyClaim to the mapping\n            prophecyClaimCount = prophecyClaimCount.add(1);\n            prophecyClaims[_prophecyID] = prophecyClaim;\n\n            emit LogNewProphecyClaim(\n                _prophecyID,\n                _claimType,\n                _cosmosSender,\n                _ethereumReceiver,\n                msg.sender,\n                tokenAddress,\n                symbol,\n                _amount\n            );\n\n            usedNonce[_prophecyID] = true;\n            claimComplete = Oracle(oracle).newOracleClaim(_prophecyID, msg.sender);\n        }\n\n        if (claimComplete) {\n            completeProphecyClaim(_prophecyID);\n        }\n    }\n\n    /*\n     * @dev: completeProphecyClaim\n     *       Allows for the completion of ProphecyClaims once processed by the Oracle.\n     *       Burn claims unlock tokens stored by BridgeBank.\n     *       Lock claims mint BridgeTokens on BridgeBank's token whitelist.\n     */\n    function completeProphecyClaim(uint256 _prophecyID)\n        internal\n        isPending(_prophecyID)\n    {\n        prophecyClaims[_prophecyID].status = Status.Success;\n\n        ClaimType claimType = prophecyClaims[_prophecyID].claimType;\n        if (claimType == ClaimType.Burn) {\n            unlockTokens(_prophecyID);\n        } else {\n            issueBridgeTokens(_prophecyID);\n        }\n\n        emit LogProphecyCompleted(_prophecyID, claimType);\n    }\n\n    /*\n     * @dev: issueBridgeTokens\n     *       Issues a request for the BridgeBank to mint new BridgeTokens\n     */\n    function issueBridgeTokens(uint256 _prophecyID) internal {\n        ProphecyClaim memory prophecyClaim = prophecyClaims[_prophecyID];\n\n        BridgeBank(bridgeBank).mintBridgeTokens(\n            prophecyClaim.cosmosSender,\n            prophecyClaim.ethereumReceiver,\n            prophecyClaim.tokenAddress,\n            prophecyClaim.symbol,\n            prophecyClaim.amount\n        );\n    }\n\n    /*\n     * @dev: unlockTokens\n     *       Issues a request for the BridgeBank to unlock funds held on contract\n     */\n    function unlockTokens(uint256 _prophecyID) internal {\n        ProphecyClaim memory prophecyClaim = prophecyClaims[_prophecyID];\n\n        BridgeBank(bridgeBank).unlock(\n            prophecyClaim.ethereumReceiver,\n            prophecyClaim.symbol,\n            prophecyClaim.amount\n        );\n    }\n\n    /*\n     * @dev: isProphecyClaimActive\n     *       Returns boolean indicating if the ProphecyClaim is active\n     */\n    function isProphecyClaimActive(uint256 _prophecyID)\n        public\n        view\n        returns (bool)\n    {\n        return prophecyClaims[_prophecyID].status == Status.Pending;\n    }\n\n    /*\n     * @dev: isProphecyValidatorActive\n     *       Returns boolean indicating if the validator that originally\n     *       submitted the ProphecyClaim is still an active validator\n     */\n    function isProphecyClaimValidatorActive(uint256 _prophecyID)\n        public\n        view\n        returns (bool)\n    {\n        return\n            Valset(valset).isActiveValidator(\n                prophecyClaims[_prophecyID].originalValidator\n            );\n    }\n\n    /*\n     * @dev: Performs low gas-comsuption string concatenation\n     *\n     * @param _prefix: start of the string\n     * @param _suffix: end of the string\n     */\n    function concat(string memory _prefix, string memory _suffix)\n        internal\n        pure\n        returns (string memory)\n    {\n        return string(abi.encodePacked(_prefix, _suffix));\n    }\n}\n",
  "sourcePath": "/Users/rudiyardley/go/src/github.com/Sifchain/sifnode/smart-contracts/contracts/CosmosBridge.sol",
  "compiler": {
    "name": "solc",
    "version": "0.5.16+commit.9c3226ce.Emscripten.clang"
  },
  "schemaVersion": "3.3.1",
  "updatedAt": "2020-11-30T12:10:44.917Z",
  "networkType": "ethereum",
  "devdoc": {
    "methods": {}
  },
  "userdoc": {
    "methods": {}
  }
}