{
  "contractName": "ValsetStorage",
  "abi": [
    {
      "constant": true,
      "inputs": [],
      "name": "currentValsetVersion",
      "outputs": [
        {
          "internalType": "uint256",
          "name": "",
          "type": "uint256"
        }
      ],
      "payable": false,
      "stateMutability": "view",
      "type": "function"
    },
    {
      "constant": true,
      "inputs": [],
      "name": "operator",
      "outputs": [
        {
          "internalType": "address",
          "name": "",
          "type": "address"
        }
      ],
      "payable": false,
      "stateMutability": "view",
      "type": "function"
    },
    {
      "constant": true,
      "inputs": [
        {
          "internalType": "bytes32",
          "name": "",
          "type": "bytes32"
        }
      ],
      "name": "powers",
      "outputs": [
        {
          "internalType": "uint256",
          "name": "",
          "type": "uint256"
        }
      ],
      "payable": false,
      "stateMutability": "view",
      "type": "function"
    },
    {
      "constant": true,
      "inputs": [],
      "name": "totalPower",
      "outputs": [
        {
          "internalType": "uint256",
          "name": "",
          "type": "uint256"
        }
      ],
      "payable": false,
      "stateMutability": "view",
      "type": "function"
    },
    {
      "constant": true,
      "inputs": [],
      "name": "validatorCount",
      "outputs": [
        {
          "internalType": "uint256",
          "name": "",
          "type": "uint256"
        }
      ],
      "payable": false,
      "stateMutability": "view",
      "type": "function"
    },
    {
      "constant": true,
      "inputs": [
        {
          "internalType": "bytes32",
          "name": "",
          "type": "bytes32"
        }
      ],
      "name": "validators",
      "outputs": [
        {
          "internalType": "bool",
          "name": "",
          "type": "bool"
        }
      ],
      "payable": false,
      "stateMutability": "view",
      "type": "function"
    }
  ],
  "bytecode": "0x608060405234801561001057600080fd5b50610180806100206000396000f3fe608060405234801561001057600080fd5b50600436106100625760003560e01c80630f43a67714610067578063570ca735146100815780638d56c37d146100a55780639bdafcb3146100ad578063b872c523146100de578063db3ad22c146100fb575b600080fd5b61006f610103565b60408051918252519081900360200190f35b610089610109565b604080516001600160a01b039092168252519081900360200190f35b61006f610118565b6100ca600480360360208110156100c357600080fd5b503561011e565b604080519115158252519081900360200190f35b61006f600480360360208110156100f457600080fd5b5035610133565b61006f610145565b60025481565b6004546001600160a01b031681565b60015481565b60036020526000908152604090205460ff1681565b60056020526000908152604090205481565b6000548156fea265627a7a72315820f66b81b07ce29533b6fe63329a67e8745de5e9b69fae70465ff66b258c133c9e64736f6c63430005100032",
  "source": "pragma solidity ^0.5.0;\n\ncontract ValsetStorage {\n\n    /**\n     * @dev: Total power of all validators\n     */\n    uint256 public totalPower;\n\n    /**\n     * @dev: Current valset version\n     */\n    uint256 public currentValsetVersion;\n\n    /**\n     * @dev: validator count\n     */\n    uint256 public validatorCount;\n\n    /**\n     * @dev: Keep track of active validator\n     */\n    mapping(bytes32 => bool) public validators;\n\n    /**\n     * @dev: operator address\n     */\n    address public operator;\n\n    /**\n     * @dev: validator address + uint then hashed equals key mapped to powers\n     */\n    mapping(bytes32 => uint256) public powers;\n\n    /**\n    * @notice gap of storage for future upgrades\n    */\n    uint256[100] private ____gap;\n}",
  "sourcePath": "/Users/rudiyardley/go/src/github.com/Sifchain/sifnode/smart-contracts/contracts/ValsetStorage.sol",
  "compiler": {
    "name": "solc",
    "version": "0.5.16+commit.9c3226ce.Emscripten.clang"
  },
  "schemaVersion": "3.3.1",
  "updatedAt": "2020-11-30T12:01:02.630Z",
  "devdoc": {
    "methods": {}
  },
  "userdoc": {
    "methods": {}
  }
}